{
  "_format": "hh-sol-artifact-1",
  "contractName": "ZkDvp",
  "sourceName": "contracts/core/contracts/ZkDvp.sol",
  "abi": [
    {
      "inputs": [
        {
          "internalType": "address",
          "name": "hashContractAddress",
          "type": "address"
        },
        {
          "internalType": "address",
          "name": "genericVerifierContractAddress",
          "type": "address"
        }
      ],
      "stateMutability": "nonpayable",
      "type": "constructor"
    },
    {
      "inputs": [],
      "name": "AuctionAlreadyExists",
      "type": "error"
    },
    {
      "inputs": [],
      "name": "AuctionIdMismatch",
      "type": "error"
    },
    {
      "inputs": [],
      "name": "AuctionStateMismatch",
      "type": "error"
    },
    {
      "inputs": [],
      "name": "BidStateMismatch",
      "type": "error"
    },
    {
      "inputs": [],
      "name": "BlindedBidMismatch",
      "type": "error"
    },
    {
      "inputs": [],
      "name": "BrokerAlreadyRegistered",
      "type": "error"
    },
    {
      "inputs": [],
      "name": "FungibleDeliveryVault",
      "type": "error"
    },
    {
      "inputs": [],
      "name": "GroupFungibilityMismatch",
      "type": "error"
    },
    {
      "inputs": [],
      "name": "GroupIdOutOfRange",
      "type": "error"
    },
    {
      "inputs": [],
      "name": "GroupMembershipMismatch",
      "type": "error"
    },
    {
      "inputs": [],
      "name": "GroupPairAlreadyRegistered",
      "type": "error"
    },
    {
      "inputs": [],
      "name": "InvalidChallenge",
      "type": "error"
    },
    {
      "inputs": [],
      "name": "InvalidDeliveryMessage",
      "type": "error"
    },
    {
      "inputs": [],
      "name": "InvalidExchangeGroupPair",
      "type": "error"
    },
    {
      "inputs": [],
      "name": "InvalidMerkleRoot",
      "type": "error"
    },
    {
      "inputs": [],
      "name": "InvalidNullifier",
      "type": "error"
    },
    {
      "inputs": [],
      "name": "InvalidNumberOfInputs",
      "type": "error"
    },
    {
      "inputs": [],
      "name": "InvalidNumberOfOutputs",
      "type": "error"
    },
    {
      "inputs": [],
      "name": "InvalidOpening",
      "type": "error"
    },
    {
      "inputs": [],
      "name": "InvalidPartialProofReceipt",
      "type": "error"
    },
    {
      "inputs": [],
      "name": "InvalidPaymentMessage",
      "type": "error"
    },
    {
      "inputs": [],
      "name": "InvalidStatementSize",
      "type": "error"
    },
    {
      "inputs": [],
      "name": "InvalidSwapGroupPair",
      "type": "error"
    },
    {
      "inputs": [],
      "name": "JoinSplitWithSameCommitments",
      "type": "error"
    },
    {
      "inputs": [],
      "name": "NonFungiblePaymentVault",
      "type": "error"
    },
    {
      "inputs": [],
      "name": "NotImplemented",
      "type": "error"
    },
    {
      "inputs": [],
      "name": "NotWinningBidsCountMismatch",
      "type": "error"
    },
    {
      "inputs": [],
      "name": "RottenChallenge",
      "type": "error"
    },
    {
      "inputs": [],
      "name": "WinningBidOpeningMismatch",
      "type": "error"
    },
    {
      "anonymous": false,
      "inputs": [
        {
          "indexed": true,
          "internalType": "uint256",
          "name": "auctionId",
          "type": "uint256"
        },
        {
          "indexed": true,
          "internalType": "uint256",
          "name": "blindedBid",
          "type": "uint256"
        }
      ],
      "name": "AuctionBidOpenedPrivately",
      "type": "event"
    },
    {
      "anonymous": false,
      "inputs": [
        {
          "indexed": true,
          "internalType": "uint256",
          "name": "auctionId",
          "type": "uint256"
        },
        {
          "indexed": true,
          "internalType": "uint256",
          "name": "blindedBid",
          "type": "uint256"
        },
        {
          "indexed": true,
          "internalType": "uint256",
          "name": "bidAmount",
          "type": "uint256"
        },
        {
          "indexed": false,
          "internalType": "uint256",
          "name": "bidRandom",
          "type": "uint256"
        }
      ],
      "name": "AuctionBidOpenedPublicly",
      "type": "event"
    },
    {
      "anonymous": false,
      "inputs": [
        {
          "indexed": true,
          "internalType": "uint256",
          "name": "auctionId",
          "type": "uint256"
        },
        {
          "indexed": false,
          "internalType": "uint256",
          "name": "blindedBid",
          "type": "uint256"
        }
      ],
      "name": "AuctionBidSubmitted",
      "type": "event"
    },
    {
      "anonymous": false,
      "inputs": [
        {
          "indexed": true,
          "internalType": "uint256",
          "name": "auctionId",
          "type": "uint256"
        },
        {
          "indexed": true,
          "internalType": "uint256",
          "name": "winningBlindedBid",
          "type": "uint256"
        },
        {
          "indexed": true,
          "internalType": "uint256",
          "name": "winningBlockNumber",
          "type": "uint256"
        },
        {
          "indexed": false,
          "internalType": "uint256",
          "name": "winningBid",
          "type": "uint256"
        },
        {
          "indexed": false,
          "internalType": "uint256",
          "name": "winningRandom",
          "type": "uint256"
        },
        {
          "indexed": false,
          "internalType": "uint256",
          "name": "bidCommitment1",
          "type": "uint256"
        },
        {
          "indexed": false,
          "internalType": "uint256",
          "name": "bidCommitment2",
          "type": "uint256"
        },
        {
          "indexed": false,
          "internalType": "uint256",
          "name": "itemCommitment",
          "type": "uint256"
        }
      ],
      "name": "AuctionConcluded",
      "type": "event"
    },
    {
      "anonymous": false,
      "inputs": [
        {
          "indexed": true,
          "internalType": "uint256",
          "name": "auctionId",
          "type": "uint256"
        },
        {
          "indexed": true,
          "internalType": "uint256",
          "name": "vaultId",
          "type": "uint256"
        },
        {
          "indexed": true,
          "internalType": "uint256",
          "name": "bidVaultId",
          "type": "uint256"
        },
        {
          "indexed": false,
          "internalType": "uint256",
          "name": "itemUniqueId",
          "type": "uint256"
        },
        {
          "indexed": false,
          "internalType": "uint256",
          "name": "sellerFundCoinPublicKey",
          "type": "uint256"
        }
      ],
      "name": "AuctionInitialized",
      "type": "event"
    },
    {
      "anonymous": false,
      "inputs": [
        {
          "indexed": true,
          "internalType": "uint256",
          "name": "vaultId",
          "type": "uint256"
        },
        {
          "indexed": true,
          "internalType": "uint256",
          "name": "blindedBrokerPublicKey",
          "type": "uint256"
        }
      ],
      "name": "BrokerRegistered",
      "type": "event"
    },
    {
      "anonymous": false,
      "inputs": [
        {
          "indexed": true,
          "internalType": "uint256",
          "name": "assetId",
          "type": "uint256"
        },
        {
          "indexed": true,
          "internalType": "uint256",
          "name": "treeNumber",
          "type": "uint256"
        },
        {
          "indexed": true,
          "internalType": "uint256",
          "name": "nullifier",
          "type": "uint256"
        }
      ],
      "name": "CoinLocked",
      "type": "event"
    },
    {
      "anonymous": false,
      "inputs": [
        {
          "indexed": true,
          "internalType": "uint256",
          "name": "assetId",
          "type": "uint256"
        },
        {
          "indexed": true,
          "internalType": "uint256",
          "name": "treeNumber",
          "type": "uint256"
        },
        {
          "indexed": true,
          "internalType": "uint256",
          "name": "nullifier",
          "type": "uint256"
        }
      ],
      "name": "CoinUnlocked",
      "type": "event"
    },
    {
      "anonymous": false,
      "inputs": [
        {
          "indexed": true,
          "internalType": "uint256",
          "name": "beacon",
          "type": "uint256"
        },
        {
          "indexed": true,
          "internalType": "uint256",
          "name": "blindedBrokerPublicKey",
          "type": "uint256"
        }
      ],
      "name": "LegitBrokerReceipt",
      "type": "event"
    },
    {
      "anonymous": false,
      "inputs": [
        {
          "indexed": true,
          "internalType": "bytes32",
          "name": "role",
          "type": "bytes32"
        },
        {
          "indexed": true,
          "internalType": "bytes32",
          "name": "previousAdminRole",
          "type": "bytes32"
        },
        {
          "indexed": true,
          "internalType": "bytes32",
          "name": "newAdminRole",
          "type": "bytes32"
        }
      ],
      "name": "RoleAdminChanged",
      "type": "event"
    },
    {
      "anonymous": false,
      "inputs": [
        {
          "indexed": true,
          "internalType": "bytes32",
          "name": "role",
          "type": "bytes32"
        },
        {
          "indexed": true,
          "internalType": "address",
          "name": "account",
          "type": "address"
        },
        {
          "indexed": true,
          "internalType": "address",
          "name": "sender",
          "type": "address"
        }
      ],
      "name": "RoleGranted",
      "type": "event"
    },
    {
      "anonymous": false,
      "inputs": [
        {
          "indexed": true,
          "internalType": "bytes32",
          "name": "role",
          "type": "bytes32"
        },
        {
          "indexed": true,
          "internalType": "address",
          "name": "account",
          "type": "address"
        },
        {
          "indexed": true,
          "internalType": "address",
          "name": "sender",
          "type": "address"
        }
      ],
      "name": "RoleRevoked",
      "type": "event"
    },
    {
      "anonymous": false,
      "inputs": [
        {
          "indexed": true,
          "internalType": "uint256",
          "name": "vaultId",
          "type": "uint256"
        },
        {
          "indexed": true,
          "internalType": "uint256",
          "name": "tokenUniqueId",
          "type": "uint256"
        },
        {
          "indexed": true,
          "internalType": "uint256",
          "name": "groupId",
          "type": "uint256"
        }
      ],
      "name": "TokenAddedToGroup",
      "type": "event"
    },
    {
      "anonymous": false,
      "inputs": [
        {
          "indexed": true,
          "internalType": "uint256",
          "name": "vaultId",
          "type": "uint256"
        },
        {
          "indexed": true,
          "internalType": "uint256",
          "name": "groupId",
          "type": "uint256"
        }
      ],
      "name": "VaultAddedToGroup",
      "type": "event"
    },
    {
      "anonymous": false,
      "inputs": [
        {
          "indexed": true,
          "internalType": "uint256",
          "name": "challenge",
          "type": "uint256"
        },
        {
          "indexed": true,
          "internalType": "uint256",
          "name": "assetId",
          "type": "uint256"
        },
        {
          "indexed": true,
          "internalType": "uint256",
          "name": "tokenId",
          "type": "uint256"
        },
        {
          "indexed": false,
          "internalType": "uint256",
          "name": "amountOrOne",
          "type": "uint256"
        },
        {
          "indexed": false,
          "internalType": "address",
          "name": "assetAddress",
          "type": "address"
        },
        {
          "indexed": false,
          "internalType": "address",
          "name": "senderAddress",
          "type": "address"
        }
      ],
      "name": "VerifyOwnershipReceipt",
      "type": "event"
    },
    {
      "inputs": [],
      "name": "DEFAULT_ADMIN_ROLE",
      "outputs": [
        {
          "internalType": "bytes32",
          "name": "",
          "type": "bytes32"
        }
      ],
      "stateMutability": "view",
      "type": "function"
    },
    {
      "inputs": [],
      "name": "DEFAULT_AUCTION_ROLE",
      "outputs": [
        {
          "internalType": "bytes32",
          "name": "",
          "type": "bytes32"
        }
      ],
      "stateMutability": "view",
      "type": "function"
    },
    {
      "inputs": [],
      "name": "DEFAULT_OWNER_ROLE",
      "outputs": [
        {
          "internalType": "bytes32",
          "name": "",
          "type": "bytes32"
        }
      ],
      "stateMutability": "view",
      "type": "function"
    },
    {
      "inputs": [],
      "name": "VK_ID_AUCTION_BID",
      "outputs": [
        {
          "internalType": "uint256",
          "name": "",
          "type": "uint256"
        }
      ],
      "stateMutability": "view",
      "type": "function"
    },
    {
      "inputs": [],
      "name": "VK_ID_AUCTION_INIT",
      "outputs": [
        {
          "internalType": "uint256",
          "name": "",
          "type": "uint256"
        }
      ],
      "stateMutability": "view",
      "type": "function"
    },
    {
      "inputs": [],
      "name": "VK_ID_AUCTION_NOT_WINNING_BID",
      "outputs": [
        {
          "internalType": "uint256",
          "name": "",
          "type": "uint256"
        }
      ],
      "stateMutability": "view",
      "type": "function"
    },
    {
      "inputs": [],
      "name": "VK_ID_AUCTION_PRIVATE_OPENING",
      "outputs": [
        {
          "internalType": "uint256",
          "name": "",
          "type": "uint256"
        }
      ],
      "stateMutability": "view",
      "type": "function"
    },
    {
      "inputs": [],
      "name": "VK_ID_BROKER_REGISTRATION",
      "outputs": [
        {
          "internalType": "uint256",
          "name": "",
          "type": "uint256"
        }
      ],
      "stateMutability": "view",
      "type": "function"
    },
    {
      "inputs": [],
      "name": "VK_ID_LEGIT_BROKER",
      "outputs": [
        {
          "internalType": "uint256",
          "name": "",
          "type": "uint256"
        }
      ],
      "stateMutability": "view",
      "type": "function"
    },
    {
      "inputs": [
        {
          "internalType": "uint256",
          "name": "vaultId",
          "type": "uint256"
        },
        {
          "internalType": "uint256[]",
          "name": "uniqueIdParams",
          "type": "uint256[]"
        },
        {
          "internalType": "uint256",
          "name": "groupId",
          "type": "uint256"
        }
      ],
      "name": "addTokenToGroup",
      "outputs": [
        {
          "internalType": "bool",
          "name": "",
          "type": "bool"
        }
      ],
      "stateMutability": "nonpayable",
      "type": "function"
    },
    {
      "inputs": [
        {
          "internalType": "uint256",
          "name": "vaultId",
          "type": "uint256"
        },
        {
          "internalType": "uint256",
          "name": "groupId",
          "type": "uint256"
        }
      ],
      "name": "addVaultToGroup",
      "outputs": [
        {
          "internalType": "bool",
          "name": "",
          "type": "bool"
        }
      ],
      "stateMutability": "nonpayable",
      "type": "function"
    },
    {
      "inputs": [
        {
          "internalType": "uint256",
          "name": "challenge_",
          "type": "uint256"
        }
      ],
      "name": "checkAndRegisterChallenge",
      "outputs": [
        {
          "internalType": "bool",
          "name": "",
          "type": "bool"
        }
      ],
      "stateMutability": "nonpayable",
      "type": "function"
    },
    {
      "inputs": [],
      "name": "enygmaVault",
      "outputs": [
        {
          "internalType": "address",
          "name": "",
          "type": "address"
        }
      ],
      "stateMutability": "view",
      "type": "function"
    },
    {
      "inputs": [],
      "name": "erc1155Vault",
      "outputs": [
        {
          "internalType": "address",
          "name": "",
          "type": "address"
        }
      ],
      "stateMutability": "view",
      "type": "function"
    },
    {
      "inputs": [],
      "name": "erc20Vault",
      "outputs": [
        {
          "internalType": "address",
          "name": "",
          "type": "address"
        }
      ],
      "stateMutability": "view",
      "type": "function"
    },
    {
      "inputs": [],
      "name": "erc721Vault",
      "outputs": [
        {
          "internalType": "address",
          "name": "",
          "type": "address"
        }
      ],
      "stateMutability": "view",
      "type": "function"
    },
    {
      "inputs": [
        {
          "components": [
            {
              "components": [
                {
                  "components": [
                    {
                      "internalType": "uint256",
                      "name": "x",
                      "type": "uint256"
                    },
                    {
                      "internalType": "uint256",
                      "name": "y",
                      "type": "uint256"
                    }
                  ],
                  "internalType": "struct IZkDvp.G1Point",
                  "name": "a",
                  "type": "tuple"
                },
                {
                  "components": [
                    {
                      "internalType": "uint256[2]",
                      "name": "x",
                      "type": "uint256[2]"
                    },
                    {
                      "internalType": "uint256[2]",
                      "name": "y",
                      "type": "uint256[2]"
                    }
                  ],
                  "internalType": "struct IZkDvp.G2Point",
                  "name": "b",
                  "type": "tuple"
                },
                {
                  "components": [
                    {
                      "internalType": "uint256",
                      "name": "x",
                      "type": "uint256"
                    },
                    {
                      "internalType": "uint256",
                      "name": "y",
                      "type": "uint256"
                    }
                  ],
                  "internalType": "struct IZkDvp.G1Point",
                  "name": "c",
                  "type": "tuple"
                }
              ],
              "internalType": "struct IZkDvp.SnarkProof",
              "name": "proof",
              "type": "tuple"
            },
            {
              "internalType": "uint256[]",
              "name": "statement",
              "type": "uint256[]"
            },
            {
              "internalType": "uint256",
              "name": "numberOfInputs",
              "type": "uint256"
            },
            {
              "internalType": "uint256",
              "name": "numberOfOutputs",
              "type": "uint256"
            }
          ],
          "internalType": "struct IZkDvp.ProofReceipt",
          "name": "paymentReceipt1",
          "type": "tuple"
        },
        {
          "components": [
            {
              "components": [
                {
                  "components": [
                    {
                      "internalType": "uint256",
                      "name": "x",
                      "type": "uint256"
                    },
                    {
                      "internalType": "uint256",
                      "name": "y",
                      "type": "uint256"
                    }
                  ],
                  "internalType": "struct IZkDvp.G1Point",
                  "name": "a",
                  "type": "tuple"
                },
                {
                  "components": [
                    {
                      "internalType": "uint256[2]",
                      "name": "x",
                      "type": "uint256[2]"
                    },
                    {
                      "internalType": "uint256[2]",
                      "name": "y",
                      "type": "uint256[2]"
                    }
                  ],
                  "internalType": "struct IZkDvp.G2Point",
                  "name": "b",
                  "type": "tuple"
                },
                {
                  "components": [
                    {
                      "internalType": "uint256",
                      "name": "x",
                      "type": "uint256"
                    },
                    {
                      "internalType": "uint256",
                      "name": "y",
                      "type": "uint256"
                    }
                  ],
                  "internalType": "struct IZkDvp.G1Point",
                  "name": "c",
                  "type": "tuple"
                }
              ],
              "internalType": "struct IZkDvp.SnarkProof",
              "name": "proof",
              "type": "tuple"
            },
            {
              "internalType": "uint256[]",
              "name": "statement",
              "type": "uint256[]"
            },
            {
              "internalType": "uint256",
              "name": "numberOfInputs",
              "type": "uint256"
            },
            {
              "internalType": "uint256",
              "name": "numberOfOutputs",
              "type": "uint256"
            }
          ],
          "internalType": "struct IZkDvp.ProofReceipt",
          "name": "paymentReceipt2",
          "type": "tuple"
        },
        {
          "internalType": "uint256",
          "name": "paymentVaultId1",
          "type": "uint256"
        },
        {
          "internalType": "uint256",
          "name": "paymentVaultId2",
          "type": "uint256"
        }
      ],
      "name": "exchange",
      "outputs": [
        {
          "internalType": "bool",
          "name": "",
          "type": "bool"
        }
      ],
      "stateMutability": "nonpayable",
      "type": "function"
    },
    {
      "inputs": [
        {
          "components": [
            {
              "components": [
                {
                  "components": [
                    {
                      "internalType": "uint256",
                      "name": "x",
                      "type": "uint256"
                    },
                    {
                      "internalType": "uint256",
                      "name": "y",
                      "type": "uint256"
                    }
                  ],
                  "internalType": "struct IZkDvp.G1Point",
                  "name": "a",
                  "type": "tuple"
                },
                {
                  "components": [
                    {
                      "internalType": "uint256[2]",
                      "name": "x",
                      "type": "uint256[2]"
                    },
                    {
                      "internalType": "uint256[2]",
                      "name": "y",
                      "type": "uint256[2]"
                    }
                  ],
                  "internalType": "struct IZkDvp.G2Point",
                  "name": "b",
                  "type": "tuple"
                },
                {
                  "components": [
                    {
                      "internalType": "uint256",
                      "name": "x",
                      "type": "uint256"
                    },
                    {
                      "internalType": "uint256",
                      "name": "y",
                      "type": "uint256"
                    }
                  ],
                  "internalType": "struct IZkDvp.G1Point",
                  "name": "c",
                  "type": "tuple"
                }
              ],
              "internalType": "struct IZkDvp.SnarkProof",
              "name": "proof",
              "type": "tuple"
            },
            {
              "internalType": "uint256[]",
              "name": "statement",
              "type": "uint256[]"
            },
            {
              "internalType": "uint256",
              "name": "numberOfInputs",
              "type": "uint256"
            },
            {
              "internalType": "uint256",
              "name": "numberOfOutputs",
              "type": "uint256"
            }
          ],
          "internalType": "struct IZkDvp.ProofReceipt",
          "name": "receipt1",
          "type": "tuple"
        },
        {
          "components": [
            {
              "components": [
                {
                  "components": [
                    {
                      "internalType": "uint256",
                      "name": "x",
                      "type": "uint256"
                    },
                    {
                      "internalType": "uint256",
                      "name": "y",
                      "type": "uint256"
                    }
                  ],
                  "internalType": "struct IZkDvp.G1Point",
                  "name": "a",
                  "type": "tuple"
                },
                {
                  "components": [
                    {
                      "internalType": "uint256[2]",
                      "name": "x",
                      "type": "uint256[2]"
                    },
                    {
                      "internalType": "uint256[2]",
                      "name": "y",
                      "type": "uint256[2]"
                    }
                  ],
                  "internalType": "struct IZkDvp.G2Point",
                  "name": "b",
                  "type": "tuple"
                },
                {
                  "components": [
                    {
                      "internalType": "uint256",
                      "name": "x",
                      "type": "uint256"
                    },
                    {
                      "internalType": "uint256",
                      "name": "y",
                      "type": "uint256"
                    }
                  ],
                  "internalType": "struct IZkDvp.G1Point",
                  "name": "c",
                  "type": "tuple"
                }
              ],
              "internalType": "struct IZkDvp.SnarkProof",
              "name": "proof",
              "type": "tuple"
            },
            {
              "internalType": "uint256[]",
              "name": "statement",
              "type": "uint256[]"
            },
            {
              "internalType": "uint256",
              "name": "numberOfInputs",
              "type": "uint256"
            },
            {
              "internalType": "uint256",
              "name": "numberOfOutputs",
              "type": "uint256"
            }
          ],
          "internalType": "struct IZkDvp.ProofReceipt",
          "name": "receipt2",
          "type": "tuple"
        },
        {
          "internalType": "uint256",
          "name": "vaultId1",
          "type": "uint256"
        },
        {
          "internalType": "uint256",
          "name": "vaultId2",
          "type": "uint256"
        },
        {
          "internalType": "uint256",
          "name": "groupId1",
          "type": "uint256"
        },
        {
          "internalType": "uint256",
          "name": "groupId2",
          "type": "uint256"
        }
      ],
      "name": "exchangeOnGroupPair",
      "outputs": [
        {
          "internalType": "bool",
          "name": "",
          "type": "bool"
        }
      ],
      "stateMutability": "nonpayable",
      "type": "function"
    },
    {
      "inputs": [
        {
          "internalType": "bytes32",
          "name": "role",
          "type": "bytes32"
        }
      ],
      "name": "getRoleAdmin",
      "outputs": [
        {
          "internalType": "bytes32",
          "name": "",
          "type": "bytes32"
        }
      ],
      "stateMutability": "view",
      "type": "function"
    },
    {
      "inputs": [
        {
          "internalType": "bytes32",
          "name": "role",
          "type": "bytes32"
        },
        {
          "internalType": "address",
          "name": "account",
          "type": "address"
        }
      ],
      "name": "grantRole",
      "outputs": [],
      "stateMutability": "nonpayable",
      "type": "function"
    },
    {
      "inputs": [
        {
          "internalType": "uint256",
          "name": "groupId1",
          "type": "uint256"
        },
        {
          "internalType": "uint256",
          "name": "groupId2",
          "type": "uint256"
        }
      ],
      "name": "groupPairId",
      "outputs": [
        {
          "internalType": "uint256",
          "name": "",
          "type": "uint256"
        }
      ],
      "stateMutability": "pure",
      "type": "function"
    },
    {
      "inputs": [
        {
          "internalType": "bytes32",
          "name": "role",
          "type": "bytes32"
        },
        {
          "internalType": "address",
          "name": "account",
          "type": "address"
        }
      ],
      "name": "hasRole",
      "outputs": [
        {
          "internalType": "bool",
          "name": "",
          "type": "bool"
        }
      ],
      "stateMutability": "view",
      "type": "function"
    },
    {
      "inputs": [],
      "name": "hashContractAddress",
      "outputs": [
        {
          "internalType": "address",
          "name": "",
          "type": "address"
        }
      ],
      "stateMutability": "view",
      "type": "function"
    },
    {
      "inputs": [
        {
          "internalType": "address",
          "name": "verifierAddress",
          "type": "address"
        }
      ],
      "name": "initializeDvp",
      "outputs": [
        {
          "internalType": "bool",
          "name": "",
          "type": "bool"
        }
      ],
      "stateMutability": "nonpayable",
      "type": "function"
    },
    {
      "inputs": [
        {
          "internalType": "uint256",
          "name": "vaultId",
          "type": "uint256"
        },
        {
          "components": [
            {
              "components": [
                {
                  "components": [
                    {
                      "internalType": "uint256",
                      "name": "x",
                      "type": "uint256"
                    },
                    {
                      "internalType": "uint256",
                      "name": "y",
                      "type": "uint256"
                    }
                  ],
                  "internalType": "struct IZkDvp.G1Point",
                  "name": "a",
                  "type": "tuple"
                },
                {
                  "components": [
                    {
                      "internalType": "uint256[2]",
                      "name": "x",
                      "type": "uint256[2]"
                    },
                    {
                      "internalType": "uint256[2]",
                      "name": "y",
                      "type": "uint256[2]"
                    }
                  ],
                  "internalType": "struct IZkDvp.G2Point",
                  "name": "b",
                  "type": "tuple"
                },
                {
                  "components": [
                    {
                      "internalType": "uint256",
                      "name": "x",
                      "type": "uint256"
                    },
                    {
                      "internalType": "uint256",
                      "name": "y",
                      "type": "uint256"
                    }
                  ],
                  "internalType": "struct IZkDvp.G1Point",
                  "name": "c",
                  "type": "tuple"
                }
              ],
              "internalType": "struct IZkDvp.SnarkProof",
              "name": "proof",
              "type": "tuple"
            },
            {
              "internalType": "uint256[]",
              "name": "statement",
              "type": "uint256[]"
            },
            {
              "internalType": "uint256",
              "name": "numberOfInputs",
              "type": "uint256"
            },
            {
              "internalType": "uint256",
              "name": "numberOfOutputs",
              "type": "uint256"
            }
          ],
          "internalType": "struct IZkDvp.ProofReceipt",
          "name": "receipt",
          "type": "tuple"
        },
        {
          "internalType": "uint256",
          "name": "groupId",
          "type": "uint256"
        }
      ],
      "name": "isMemberOfFromProofReceipt",
      "outputs": [
        {
          "internalType": "bool",
          "name": "",
          "type": "bool"
        }
      ],
      "stateMutability": "view",
      "type": "function"
    },
    {
      "inputs": [
        {
          "internalType": "uint256",
          "name": "vaultId",
          "type": "uint256"
        },
        {
          "internalType": "uint256[]",
          "name": "uniqueIdParams",
          "type": "uint256[]"
        },
        {
          "internalType": "uint256",
          "name": "groupId",
          "type": "uint256"
        }
      ],
      "name": "isTokenMemberOf",
      "outputs": [
        {
          "internalType": "bool",
          "name": "",
          "type": "bool"
        }
      ],
      "stateMutability": "view",
      "type": "function"
    },
    {
      "inputs": [
        {
          "internalType": "uint256",
          "name": "groupId1",
          "type": "uint256"
        },
        {
          "internalType": "uint256",
          "name": "groupId2",
          "type": "uint256"
        }
      ],
      "name": "isValidExchangeGroupPair",
      "outputs": [
        {
          "internalType": "bool",
          "name": "",
          "type": "bool"
        }
      ],
      "stateMutability": "view",
      "type": "function"
    },
    {
      "inputs": [
        {
          "internalType": "uint256",
          "name": "groupId1",
          "type": "uint256"
        },
        {
          "internalType": "uint256",
          "name": "groupId2",
          "type": "uint256"
        }
      ],
      "name": "isValidSwapGroupPair",
      "outputs": [
        {
          "internalType": "bool",
          "name": "",
          "type": "bool"
        }
      ],
      "stateMutability": "view",
      "type": "function"
    },
    {
      "inputs": [
        {
          "internalType": "uint256",
          "name": "vaultId",
          "type": "uint256"
        },
        {
          "internalType": "uint256",
          "name": "groupId",
          "type": "uint256"
        }
      ],
      "name": "isVaultMemberOf",
      "outputs": [
        {
          "internalType": "bool",
          "name": "",
          "type": "bool"
        }
      ],
      "stateMutability": "view",
      "type": "function"
    },
    {
      "inputs": [],
      "name": "name",
      "outputs": [
        {
          "internalType": "string",
          "name": "",
          "type": "string"
        }
      ],
      "stateMutability": "view",
      "type": "function"
    },
    {
      "inputs": [
        {
          "internalType": "address",
          "name": "assetGroupContractAddress",
          "type": "address"
        },
        {
          "internalType": "string",
          "name": "assetGroupName",
          "type": "string"
        },
        {
          "internalType": "bool",
          "name": "isAssetGroupFungible",
          "type": "bool"
        },
        {
          "internalType": "uint256",
          "name": "treeDepth",
          "type": "uint256"
        }
      ],
      "name": "registerAssetGroup",
      "outputs": [
        {
          "internalType": "bool",
          "name": "",
          "type": "bool"
        }
      ],
      "stateMutability": "nonpayable",
      "type": "function"
    },
    {
      "inputs": [
        {
          "components": [
            {
              "components": [
                {
                  "components": [
                    {
                      "internalType": "uint256",
                      "name": "x",
                      "type": "uint256"
                    },
                    {
                      "internalType": "uint256",
                      "name": "y",
                      "type": "uint256"
                    }
                  ],
                  "internalType": "struct IZkDvp.G1Point",
                  "name": "a",
                  "type": "tuple"
                },
                {
                  "components": [
                    {
                      "internalType": "uint256[2]",
                      "name": "x",
                      "type": "uint256[2]"
                    },
                    {
                      "internalType": "uint256[2]",
                      "name": "y",
                      "type": "uint256[2]"
                    }
                  ],
                  "internalType": "struct IZkDvp.G2Point",
                  "name": "b",
                  "type": "tuple"
                },
                {
                  "components": [
                    {
                      "internalType": "uint256",
                      "name": "x",
                      "type": "uint256"
                    },
                    {
                      "internalType": "uint256",
                      "name": "y",
                      "type": "uint256"
                    }
                  ],
                  "internalType": "struct IZkDvp.G1Point",
                  "name": "c",
                  "type": "tuple"
                }
              ],
              "internalType": "struct IZkDvp.SnarkProof",
              "name": "proof",
              "type": "tuple"
            },
            {
              "internalType": "uint256[]",
              "name": "statement",
              "type": "uint256[]"
            },
            {
              "internalType": "uint256",
              "name": "numberOfInputs",
              "type": "uint256"
            },
            {
              "internalType": "uint256",
              "name": "numberOfOutputs",
              "type": "uint256"
            }
          ],
          "internalType": "struct IZkDvp.ProofReceipt",
          "name": "brokerRegistrationProof",
          "type": "tuple"
        }
      ],
      "name": "registerBroker",
      "outputs": [
        {
          "internalType": "bool",
          "name": "",
          "type": "bool"
        }
      ],
      "stateMutability": "nonpayable",
      "type": "function"
    },
    {
      "inputs": [
        {
          "internalType": "uint256",
          "name": "groupId1",
          "type": "uint256"
        },
        {
          "internalType": "uint256",
          "name": "groupId2",
          "type": "uint256"
        }
      ],
      "name": "registerExchangeGroupPair",
      "outputs": [
        {
          "internalType": "bool",
          "name": "",
          "type": "bool"
        }
      ],
      "stateMutability": "nonpayable",
      "type": "function"
    },
    {
      "inputs": [
        {
          "components": [
            {
              "components": [
                {
                  "internalType": "uint256",
                  "name": "x",
                  "type": "uint256"
                },
                {
                  "internalType": "uint256",
                  "name": "y",
                  "type": "uint256"
                }
              ],
              "internalType": "struct IZkDvp.G1Point",
              "name": "alpha1",
              "type": "tuple"
            },
            {
              "components": [
                {
                  "internalType": "uint256[2]",
                  "name": "x",
                  "type": "uint256[2]"
                },
                {
                  "internalType": "uint256[2]",
                  "name": "y",
                  "type": "uint256[2]"
                }
              ],
              "internalType": "struct IZkDvp.G2Point",
              "name": "beta2",
              "type": "tuple"
            },
            {
              "components": [
                {
                  "internalType": "uint256[2]",
                  "name": "x",
                  "type": "uint256[2]"
                },
                {
                  "internalType": "uint256[2]",
                  "name": "y",
                  "type": "uint256[2]"
                }
              ],
              "internalType": "struct IZkDvp.G2Point",
              "name": "gamma2",
              "type": "tuple"
            },
            {
              "components": [
                {
                  "internalType": "uint256[2]",
                  "name": "x",
                  "type": "uint256[2]"
                },
                {
                  "internalType": "uint256[2]",
                  "name": "y",
                  "type": "uint256[2]"
                }
              ],
              "internalType": "struct IZkDvp.G2Point",
              "name": "delta2",
              "type": "tuple"
            },
            {
              "components": [
                {
                  "internalType": "uint256",
                  "name": "x",
                  "type": "uint256"
                },
                {
                  "internalType": "uint256",
                  "name": "y",
                  "type": "uint256"
                }
              ],
              "internalType": "struct IZkDvp.G1Point[]",
              "name": "ic",
              "type": "tuple[]"
            }
          ],
          "internalType": "struct IZkDvp.VerifyingKey",
          "name": "vk_",
          "type": "tuple"
        }
      ],
      "name": "registerNewVerificationKey",
      "outputs": [
        {
          "internalType": "bool",
          "name": "",
          "type": "bool"
        }
      ],
      "stateMutability": "nonpayable",
      "type": "function"
    },
    {
      "inputs": [
        {
          "internalType": "uint256",
          "name": "groupId1",
          "type": "uint256"
        },
        {
          "internalType": "uint256",
          "name": "groupId2",
          "type": "uint256"
        }
      ],
      "name": "registerSwapGroupPair",
      "outputs": [
        {
          "internalType": "bool",
          "name": "",
          "type": "bool"
        }
      ],
      "stateMutability": "nonpayable",
      "type": "function"
    },
    {
      "inputs": [
        {
          "internalType": "address",
          "name": "vaultContractAddress",
          "type": "address"
        },
        {
          "internalType": "address",
          "name": "assetContractAddress",
          "type": "address"
        },
        {
          "internalType": "uint256",
          "name": "vaultIdentifiersCount",
          "type": "uint256"
        },
        {
          "internalType": "uint256",
          "name": "treeDepth",
          "type": "uint256"
        }
      ],
      "name": "registerVault",
      "outputs": [
        {
          "internalType": "bool",
          "name": "",
          "type": "bool"
        }
      ],
      "stateMutability": "nonpayable",
      "type": "function"
    },
    {
      "inputs": [
        {
          "internalType": "address",
          "name": "zkAuctionContractAddress",
          "type": "address"
        }
      ],
      "name": "registerZkAuction",
      "outputs": [
        {
          "internalType": "bool",
          "name": "",
          "type": "bool"
        }
      ],
      "stateMutability": "nonpayable",
      "type": "function"
    },
    {
      "inputs": [
        {
          "internalType": "bytes32",
          "name": "role",
          "type": "bytes32"
        },
        {
          "internalType": "address",
          "name": "account",
          "type": "address"
        }
      ],
      "name": "renounceRole",
      "outputs": [],
      "stateMutability": "nonpayable",
      "type": "function"
    },
    {
      "inputs": [
        {
          "internalType": "bytes32",
          "name": "role",
          "type": "bytes32"
        },
        {
          "internalType": "address",
          "name": "account",
          "type": "address"
        }
      ],
      "name": "revokeRole",
      "outputs": [],
      "stateMutability": "nonpayable",
      "type": "function"
    },
    {
      "inputs": [
        {
          "components": [
            {
              "components": [
                {
                  "components": [
                    {
                      "internalType": "uint256",
                      "name": "x",
                      "type": "uint256"
                    },
                    {
                      "internalType": "uint256",
                      "name": "y",
                      "type": "uint256"
                    }
                  ],
                  "internalType": "struct IZkDvp.G1Point",
                  "name": "a",
                  "type": "tuple"
                },
                {
                  "components": [
                    {
                      "internalType": "uint256[2]",
                      "name": "x",
                      "type": "uint256[2]"
                    },
                    {
                      "internalType": "uint256[2]",
                      "name": "y",
                      "type": "uint256[2]"
                    }
                  ],
                  "internalType": "struct IZkDvp.G2Point",
                  "name": "b",
                  "type": "tuple"
                },
                {
                  "components": [
                    {
                      "internalType": "uint256",
                      "name": "x",
                      "type": "uint256"
                    },
                    {
                      "internalType": "uint256",
                      "name": "y",
                      "type": "uint256"
                    }
                  ],
                  "internalType": "struct IZkDvp.G1Point",
                  "name": "c",
                  "type": "tuple"
                }
              ],
              "internalType": "struct IZkDvp.SnarkProof",
              "name": "proof",
              "type": "tuple"
            },
            {
              "internalType": "uint256[]",
              "name": "statement",
              "type": "uint256[]"
            },
            {
              "internalType": "uint256",
              "name": "numberOfInputs",
              "type": "uint256"
            },
            {
              "internalType": "uint256",
              "name": "numberOfOutputs",
              "type": "uint256"
            }
          ],
          "internalType": "struct IZkDvp.ProofReceipt",
          "name": "receipt",
          "type": "tuple"
        },
        {
          "internalType": "uint256",
          "name": "vaultId",
          "type": "uint256"
        },
        {
          "internalType": "uint256",
          "name": "groupId",
          "type": "uint256"
        }
      ],
      "name": "submitPartialSettlement",
      "outputs": [
        {
          "internalType": "bool",
          "name": "",
          "type": "bool"
        }
      ],
      "stateMutability": "nonpayable",
      "type": "function"
    },
    {
      "inputs": [
        {
          "internalType": "bytes4",
          "name": "interfaceId",
          "type": "bytes4"
        }
      ],
      "name": "supportsInterface",
      "outputs": [
        {
          "internalType": "bool",
          "name": "",
          "type": "bool"
        }
      ],
      "stateMutability": "view",
      "type": "function"
    },
    {
      "inputs": [
        {
          "components": [
            {
              "components": [
                {
                  "components": [
                    {
                      "internalType": "uint256",
                      "name": "x",
                      "type": "uint256"
                    },
                    {
                      "internalType": "uint256",
                      "name": "y",
                      "type": "uint256"
                    }
                  ],
                  "internalType": "struct IZkDvp.G1Point",
                  "name": "a",
                  "type": "tuple"
                },
                {
                  "components": [
                    {
                      "internalType": "uint256[2]",
                      "name": "x",
                      "type": "uint256[2]"
                    },
                    {
                      "internalType": "uint256[2]",
                      "name": "y",
                      "type": "uint256[2]"
                    }
                  ],
                  "internalType": "struct IZkDvp.G2Point",
                  "name": "b",
                  "type": "tuple"
                },
                {
                  "components": [
                    {
                      "internalType": "uint256",
                      "name": "x",
                      "type": "uint256"
                    },
                    {
                      "internalType": "uint256",
                      "name": "y",
                      "type": "uint256"
                    }
                  ],
                  "internalType": "struct IZkDvp.G1Point",
                  "name": "c",
                  "type": "tuple"
                }
              ],
              "internalType": "struct IZkDvp.SnarkProof",
              "name": "proof",
              "type": "tuple"
            },
            {
              "internalType": "uint256[]",
              "name": "statement",
              "type": "uint256[]"
            },
            {
              "internalType": "uint256",
              "name": "numberOfInputs",
              "type": "uint256"
            },
            {
              "internalType": "uint256",
              "name": "numberOfOutputs",
              "type": "uint256"
            }
          ],
          "internalType": "struct IZkDvp.ProofReceipt",
          "name": "paymentReceipt",
          "type": "tuple"
        },
        {
          "components": [
            {
              "components": [
                {
                  "components": [
                    {
                      "internalType": "uint256",
                      "name": "x",
                      "type": "uint256"
                    },
                    {
                      "internalType": "uint256",
                      "name": "y",
                      "type": "uint256"
                    }
                  ],
                  "internalType": "struct IZkDvp.G1Point",
                  "name": "a",
                  "type": "tuple"
                },
                {
                  "components": [
                    {
                      "internalType": "uint256[2]",
                      "name": "x",
                      "type": "uint256[2]"
                    },
                    {
                      "internalType": "uint256[2]",
                      "name": "y",
                      "type": "uint256[2]"
                    }
                  ],
                  "internalType": "struct IZkDvp.G2Point",
                  "name": "b",
                  "type": "tuple"
                },
                {
                  "components": [
                    {
                      "internalType": "uint256",
                      "name": "x",
                      "type": "uint256"
                    },
                    {
                      "internalType": "uint256",
                      "name": "y",
                      "type": "uint256"
                    }
                  ],
                  "internalType": "struct IZkDvp.G1Point",
                  "name": "c",
                  "type": "tuple"
                }
              ],
              "internalType": "struct IZkDvp.SnarkProof",
              "name": "proof",
              "type": "tuple"
            },
            {
              "internalType": "uint256[]",
              "name": "statement",
              "type": "uint256[]"
            },
            {
              "internalType": "uint256",
              "name": "numberOfInputs",
              "type": "uint256"
            },
            {
              "internalType": "uint256",
              "name": "numberOfOutputs",
              "type": "uint256"
            }
          ],
          "internalType": "struct IZkDvp.ProofReceipt",
          "name": "deliveryReceipt",
          "type": "tuple"
        },
        {
          "internalType": "uint256",
          "name": "paymentVaultId",
          "type": "uint256"
        },
        {
          "internalType": "uint256",
          "name": "deliveryVaultId",
          "type": "uint256"
        }
      ],
      "name": "swap",
      "outputs": [
        {
          "internalType": "bool",
          "name": "",
          "type": "bool"
        }
      ],
      "stateMutability": "nonpayable",
      "type": "function"
    },
    {
      "inputs": [
        {
          "components": [
            {
              "components": [
                {
                  "components": [
                    {
                      "internalType": "uint256",
                      "name": "x",
                      "type": "uint256"
                    },
                    {
                      "internalType": "uint256",
                      "name": "y",
                      "type": "uint256"
                    }
                  ],
                  "internalType": "struct IZkDvp.G1Point",
                  "name": "a",
                  "type": "tuple"
                },
                {
                  "components": [
                    {
                      "internalType": "uint256[2]",
                      "name": "x",
                      "type": "uint256[2]"
                    },
                    {
                      "internalType": "uint256[2]",
                      "name": "y",
                      "type": "uint256[2]"
                    }
                  ],
                  "internalType": "struct IZkDvp.G2Point",
                  "name": "b",
                  "type": "tuple"
                },
                {
                  "components": [
                    {
                      "internalType": "uint256",
                      "name": "x",
                      "type": "uint256"
                    },
                    {
                      "internalType": "uint256",
                      "name": "y",
                      "type": "uint256"
                    }
                  ],
                  "internalType": "struct IZkDvp.G1Point",
                  "name": "c",
                  "type": "tuple"
                }
              ],
              "internalType": "struct IZkDvp.SnarkProof",
              "name": "proof",
              "type": "tuple"
            },
            {
              "internalType": "uint256[]",
              "name": "statement",
              "type": "uint256[]"
            },
            {
              "internalType": "uint256",
              "name": "numberOfInputs",
              "type": "uint256"
            },
            {
              "internalType": "uint256",
              "name": "numberOfOutputs",
              "type": "uint256"
            }
          ],
          "internalType": "struct IZkDvp.ProofReceipt",
          "name": "receipt1",
          "type": "tuple"
        },
        {
          "components": [
            {
              "components": [
                {
                  "components": [
                    {
                      "internalType": "uint256",
                      "name": "x",
                      "type": "uint256"
                    },
                    {
                      "internalType": "uint256",
                      "name": "y",
                      "type": "uint256"
                    }
                  ],
                  "internalType": "struct IZkDvp.G1Point",
                  "name": "a",
                  "type": "tuple"
                },
                {
                  "components": [
                    {
                      "internalType": "uint256[2]",
                      "name": "x",
                      "type": "uint256[2]"
                    },
                    {
                      "internalType": "uint256[2]",
                      "name": "y",
                      "type": "uint256[2]"
                    }
                  ],
                  "internalType": "struct IZkDvp.G2Point",
                  "name": "b",
                  "type": "tuple"
                },
                {
                  "components": [
                    {
                      "internalType": "uint256",
                      "name": "x",
                      "type": "uint256"
                    },
                    {
                      "internalType": "uint256",
                      "name": "y",
                      "type": "uint256"
                    }
                  ],
                  "internalType": "struct IZkDvp.G1Point",
                  "name": "c",
                  "type": "tuple"
                }
              ],
              "internalType": "struct IZkDvp.SnarkProof",
              "name": "proof",
              "type": "tuple"
            },
            {
              "internalType": "uint256[]",
              "name": "statement",
              "type": "uint256[]"
            },
            {
              "internalType": "uint256",
              "name": "numberOfInputs",
              "type": "uint256"
            },
            {
              "internalType": "uint256",
              "name": "numberOfOutputs",
              "type": "uint256"
            }
          ],
          "internalType": "struct IZkDvp.ProofReceipt",
          "name": "receipt2",
          "type": "tuple"
        },
        {
          "internalType": "uint256",
          "name": "vaultId1",
          "type": "uint256"
        },
        {
          "internalType": "uint256",
          "name": "vaultId2",
          "type": "uint256"
        },
        {
          "internalType": "uint256",
          "name": "groupId1",
          "type": "uint256"
        },
        {
          "internalType": "uint256",
          "name": "groupId2",
          "type": "uint256"
        }
      ],
      "name": "swapOnGroupPair",
      "outputs": [
        {
          "internalType": "bool",
          "name": "",
          "type": "bool"
        }
      ],
      "stateMutability": "nonpayable",
      "type": "function"
    },
    {
      "inputs": [
        {
          "internalType": "uint256",
          "name": "treeId",
          "type": "uint256"
        }
      ],
      "name": "vaultById",
      "outputs": [
        {
          "internalType": "address",
          "name": "",
          "type": "address"
        }
      ],
      "stateMutability": "view",
      "type": "function"
    },
    {
      "inputs": [],
      "name": "verifierContractAddress",
      "outputs": [
        {
          "internalType": "address",
          "name": "",
          "type": "address"
        }
      ],
      "stateMutability": "view",
      "type": "function"
    },
    {
      "inputs": [
        {
          "components": [
            {
              "components": [
                {
                  "components": [
                    {
                      "internalType": "uint256",
                      "name": "x",
                      "type": "uint256"
                    },
                    {
                      "internalType": "uint256",
                      "name": "y",
                      "type": "uint256"
                    }
                  ],
                  "internalType": "struct IZkDvp.G1Point",
                  "name": "a",
                  "type": "tuple"
                },
                {
                  "components": [
                    {
                      "internalType": "uint256[2]",
                      "name": "x",
                      "type": "uint256[2]"
                    },
                    {
                      "internalType": "uint256[2]",
                      "name": "y",
                      "type": "uint256[2]"
                    }
                  ],
                  "internalType": "struct IZkDvp.G2Point",
                  "name": "b",
                  "type": "tuple"
                },
                {
                  "components": [
                    {
                      "internalType": "uint256",
                      "name": "x",
                      "type": "uint256"
                    },
                    {
                      "internalType": "uint256",
                      "name": "y",
                      "type": "uint256"
                    }
                  ],
                  "internalType": "struct IZkDvp.G1Point",
                  "name": "c",
                  "type": "tuple"
                }
              ],
              "internalType": "struct IZkDvp.SnarkProof",
              "name": "proof",
              "type": "tuple"
            },
            {
              "internalType": "uint256[]",
              "name": "statement",
              "type": "uint256[]"
            },
            {
              "internalType": "uint256",
              "name": "numberOfInputs",
              "type": "uint256"
            },
            {
              "internalType": "uint256",
              "name": "numberOfOutputs",
              "type": "uint256"
            }
          ],
          "internalType": "struct IZkDvp.ProofReceipt",
          "name": "receipt",
          "type": "tuple"
        }
      ],
      "name": "verifyLegitBrokerReceipt",
      "outputs": [
        {
          "internalType": "bool",
          "name": "",
          "type": "bool"
        }
      ],
      "stateMutability": "nonpayable",
      "type": "function"
    }
  ],
  "bytecode": "0x60806040523480156200001157600080fd5b5060405162004228380380620042288339810160408190526200003491620002aa565b60408051808201909152601481527f5a6b44565020736d61727420636f6e7472616374000000000000000000000000602082015260019062000077908262000389565b50600280546001600160a01b038481166001600160a01b0319928316179092556003805492841692909116919091179055604080516103e8808252617d2082019092529060208201617d008036833750508151620000dd9260069250602001906200020c565b50604080516103e8808252617d2082019092529060208201617d0080368337505081516200011392600c9250602001906200020c565b50604051686f776e6572526f6c6560b81b6020820152620001549060290160405160208183030381529060405280519060200120336200015c60201b60201c565b505062000455565b6200016882826200016c565b5050565b6000828152602081815260408083206001600160a01b038516845290915290205460ff1662000168576000828152602081815260408083206001600160a01b03851684529091529020805460ff19166001179055620001c83390565b6001600160a01b0316816001600160a01b0316837f2f8788117e7eff1d82e926ec794901d17c78024a50270940304540a733656f0d60405160405180910390a45050565b82805482825590600052602060002090810192821562000264579160200282015b828111156200026457825182546001600160a01b0319166001600160a01b039091161782556020909201916001909101906200022d565b506200027292915062000276565b5090565b5b8082111562000272576000815560010162000277565b80516001600160a01b0381168114620002a557600080fd5b919050565b60008060408385031215620002be57600080fd5b620002c9836200028d565b9150620002d9602084016200028d565b90509250929050565b634e487b7160e01b600052604160045260246000fd5b600181811c908216806200030d57607f821691505b6020821081036200032e57634e487b7160e01b600052602260045260246000fd5b50919050565b601f82111562000384576000816000526020600020601f850160051c810160208610156200035f5750805b601f850160051c820191505b8181101562000380578281556001016200036b565b5050505b505050565b81516001600160401b03811115620003a557620003a5620002e2565b620003bd81620003b68454620002f8565b8462000334565b602080601f831160018114620003f55760008415620003dc5750858301515b600019600386901b1c1916600185901b17855562000380565b600085815260208120601f198616915b82811015620004265788860151825594840194600190910190840162000405565b5085821015620004455787850151600019600388901b60f8161c191681555b5050505050600190811b01905550565b613dc380620004656000396000f3fe608060405234801561001057600080fd5b50600436106103095760003560e01c8063816c33f01161019c578063bc6c36bf116100ee578063d59472ca11610097578063df657fdf11610071578063df657fdf146106d0578063f3d5b093146106d8578063f588b157146106e057600080fd5b8063d59472ca14610670578063d5a279eb146106aa578063decb20f8146106bd57600080fd5b8063c7b50db0116100c8578063c7b50db014610637578063c92740211461064a578063d547741f1461065d57600080fd5b8063bc6c36bf14610609578063c0bb46d61461061c578063c7ac5b451461062457600080fd5b80639f9ffa3611610150578063ab3b03871161012a578063ab3b0387146105a0578063b02047d8146105a8578063b8e5e99b146105f657600080fd5b80639f9ffa3614610572578063a217fddf14610585578063a30886bf1461058d57600080fd5b806394f1bd071161018157806394f1bd07146104fe578063961cafa8146105115780639f42f00d1461052457600080fd5b8063816c33f0146104bf57806391d14854146104c757600080fd5b806336568abe11610260578063536d0844116102095780637aa288a0116101e35780637aa288a0146104915780637c4bdb0e146104a45780637e96a3d9146104b757600080fd5b8063536d08441461046357806360f6b1321461047657806379275a771461048957600080fd5b80634cc7037b1161023a5780634cc7037b146104355780634d4b9886146104485780634e2a00d91461045b57600080fd5b806336568abe146104075780633b8162b71461041a5780633cd6f55e1461042257600080fd5b80631727c0b0116102c25780632afaaa941161029c5780632afaaa94146103d75780632f2ff15d146103df57806332f19a5c146103f457600080fd5b80631727c0b01461038b5780632302ffb2146103a1578063248a9ca3146103b457600080fd5b806306fdde03116102f357806306fdde031461035b578063090f92211461037057806315b0669f1461037857600080fd5b80628f47d11461030e57806301ffc9a714610338575b600080fd5b6002546001600160a01b03165b6040516001600160a01b0390911681526020015b60405180910390f35b61034b610346366004612f7f565b6106f1565b604051901515815260200161032f565b61036361078a565b60405161032f9190613011565b61031b61081c565b61034b610386366004613190565b61084c565b610393600781565b60405190815260200161032f565b61034b6103af366004613351565b610a17565b6103936103c23660046133c5565b60009081526020819052604090206001015490565b610393600681565b6103f26103ed3660046133fa565b610a35565b005b61031b6104023660046133c5565b610a60565b6103f26104153660046133fa565b610a90565b610393610b21565b61034b6104303660046133c5565b610b53565b61034b610443366004613426565b610bbe565b61034b6104563660046134ad565b610c49565b610393610d67565b61034b610471366004613351565b610d98565b61034b6104843660046134ad565b610da9565b61031b610e59565b61034b61049f3660046134cf565b610e6f565b61034b6104b236600461352a565b610f0d565b61031b611040565b610393600981565b61034b6104d53660046133fa565b6000918252602082815260408084206001600160a01b0393909316845291905290205460ff1690565b61034b61050c3660046134ad565b611056565b61034b61051f366004613190565b611253565b61034b6105323660046134ad565b6040805160208082019490945280820192909252805180830382018152606090920181528151918301919091206000908152600990925290205460ff1690565b61034b6105803660046135e8565b61140d565b610393600081565b61034b61059b3660046134ad565b6119ac565b610393600b81565b61034b6105b63660046134ad565b6040805160208082019490945280820192909252805180830382018152606090920181528151918301919091206000908152600a90925290205460ff1690565b61034b610604366004613426565b611bae565b61034b610617366004613636565b611c20565b61031b611cf3565b61034b610632366004613751565b611d09565b61034b610645366004613793565b611e78565b61034b610658366004613793565b611f20565b6103f261066b3660046133fa565b611fd6565b61039361067e3660046134ad565b604080516020808201949094528082019290925280518083038201815260609092019052805191012090565b61034b6106b83660046137ae565b611ffc565b61034b6106cb3660046137ae565b6120f8565b610393600881565b610393600c81565b6004546001600160a01b031661031b565b60007fffffffff0000000000000000000000000000000000000000000000000000000082167f7965db0b00000000000000000000000000000000000000000000000000000000148061078457507f01ffc9a7000000000000000000000000000000000000000000000000000000007fffffffff000000000000000000000000000000000000000000000000000000008316145b92915050565b606060018054610799906137e3565b80601f01602080910402602001604051908101604052809291908181526020018280546107c5906137e3565b80156108125780601f106107e757610100808354040283529160200191610812565b820191906000526020600020905b8154815290600101906020018083116107f557829003601f168201915b5050505050905090565b6000600660008154811061083257610832613817565b6000918252602090912001546001600160a01b0316919050565b604051686f776e6572526f6c6560b81b60208201526000906029016040516020818303038152906040528051906020012061088d816108883390565b612296565b6000600c84815481106108a2576108a2613817565b6000918252602082200154600680546001600160a01b03909216935090889081106108cf576108cf613817565b600091825260208220015460405163c695cea960e01b81526001600160a01b039091169250829063c695cea99061090a908a90600401613869565b602060405180830381865afa158015610927573d6000803e3d6000fd5b505050506040513d601f19601f8201168201806040525081019061094b919061387c565b6040517f53342295000000000000000000000000000000000000000000000000000000008152600481018a9052602481018290529091506001600160a01b038416906353342295906044016020604051808303816000875af11580156109b5573d6000803e3d6000fd5b505050506040513d601f19601f820116820180604052508101906109d99190613895565b508581897f0d4ed26c1e8d7e7f1953cc13b4883a9dc52f61c721ba4703fe07c994af193b6c60405160405180910390a4506001979650505050505050565b6000610a298585858560006001611bae565b50600195945050505050565b600082815260208190526040902060010154610a518133612296565b610a5b8383612314565b505050565b600060068281548110610a7557610a75613817565b6000918252602090912001546001600160a01b031692915050565b6001600160a01b0381163314610b135760405162461bcd60e51b815260206004820152602f60248201527f416363657373436f6e74726f6c3a2063616e206f6e6c792072656e6f756e636560448201527f20726f6c657320666f722073656c66000000000000000000000000000000000060648201526084015b60405180910390fd5b610b1d82826123b2565b5050565b604051686f776e6572526f6c6560b81b60208201526029015b6040516020818303038152906040528051906020012081565b60008181526008602052604081205460ff168015610b9d576040517f488197f200000000000000000000000000000000000000000000000000000000815260040160405180910390fd5b50506000908152600860205260409020805460ff1916600190811790915590565b604080516020808201859052818301849052825180830384018152606090920183528151918101919091206000908152600a9091529081205460ff16610c30576040517fc24f9db600000000000000000000000000000000000000000000000000000000815260040160405180910390fd5b610c3e878787878787612431565b979650505050505050565b604051686f776e6572526f6c6560b81b602082015260009060290160405160208183030381529060405280519060200120610c85816108883390565b6000600c8481548110610c9a57610c9a613817565b6000918252602090912001546040517fde455990000000000000000000000000000000000000000000000000000000008152600481018790526001600160a01b039091169150819063de455990906024016020604051808303816000875af1158015610d0a573d6000803e3d6000fd5b505050506040513d601f19601f82011682018060405250810190610d2e9190613895565b50604051849086907f68c771c05d01f5c53189e3a23bc1fac5a3453efcd0992bddf8f390b581c2389c90600090a3506001949350505050565b6040517f41756374696f6e526f6c650000000000000000000000000000000000000000006020820152602b01610b3a565b6000610a2985858585600080610bbe565b600080600c8381548110610dbf57610dbf613817565b6000918252602090912001546040517f5949f44f000000000000000000000000000000000000000000000000000000008152600481018690526001600160a01b0390911691508190635949f44f90602401602060405180830381865afa158015610e2d573d6000803e3d6000fd5b505050506040513d601f19601f82011682018060405250810190610e519190613895565b949350505050565b6000600660028154811061083257610832613817565b600080600c8381548110610e8557610e85613817565b6000918252602090912001546040516316eae40960e01b81526001600160a01b03909116915081906316eae40990610ec39088908890600401613982565b602060405180830381865afa158015610ee0573d6000803e3d6000fd5b505050506040513d601f19601f82011682018060405250810190610f049190613895565b95945050505050565b604051686f776e6572526f6c6560b81b602082015260009060290160405160208183030381529060405280519060200120610f49816108883390565b6000600d54905086600c8281548110610f6457610f64613817565b6000918252602090912001805473ffffffffffffffffffffffffffffffffffffffff19166001600160a01b039283161790556040517f787b25430000000000000000000000000000000000000000000000000000000081529088169063787b254390610fda9084908a908a908a9060040161399b565b6020604051808303816000875af1158015610ff9573d6000803e3d6000fd5b505050506040513d601f19601f8201168201806040525081019061101d9190613895565b50600d805490600061102e836139dd565b90915550600198975050505050505050565b6000600660038154811061083257610832613817565b6000600d548310158061106b5750600d548210155b1561108957604051630eda946160e01b815260040160405180910390fd5b6000600c848154811061109e5761109e613817565b600091825260209182902001546040805163544e172d60e11b815290516001600160a01b039092169350839263a89c2e5a926004808401938290030181865afa1580156110ef573d6000803e3d6000fd5b505050506040513d601f19601f820116820180604052508101906111139190613895565b61113057604051635b1ed59f60e01b815260040160405180910390fd5b6000600c848154811061114557611145613817565b600091825260209182902001546040805163544e172d60e11b815290516001600160a01b039092169350839263a89c2e5a926004808401938290030181865afa158015611196573d6000803e3d6000fd5b505050506040513d601f19601f820116820180604052508101906111ba9190613895565b6111d757604051635b1ed59f60e01b815260040160405180910390fd5b604080516020808201889052818301879052825180830384018152606090920183528151918101919091206000818152600a9092529190205460ff161561123157604051631f7c56b760e21b815260040160405180910390fd5b6000818152600a60205260409020805460ff1916600117905550505092915050565b60408051600580825260c082019092526000918291906020820160a08036833701905050905060015b84518110156112c45784818151811061129757611297613817565b60200260200101518282815181106112b1576112b1613817565b602090810291909101015260010161127c565b506000600c84815481106112da576112da613817565b6000918252602082200154600680546001600160a01b039092169350908890811061130757611307613817565b60009182526020909120015460405163c695cea960e01b81526001600160a01b039091169063c695cea990611340908690600401613869565b602060405180830381865afa15801561135d573d6000803e3d6000fd5b505050506040513d601f19601f82011682018060405250810190611381919061387c565b6040517fdbc6179700000000000000000000000000000000000000000000000000000000815260048101899052602481018290529091506001600160a01b0383169063dbc6179790604401602060405180830381865afa1580156113e9573d6000803e3d6000fd5b505050506040513d601f19601f82011682018060405250810190610c3e9190613895565b6000808460400151600261142191906139f6565b61142c906001613a0d565b905060008560400151826114409190613a0d565b90506000866020015160008151811061145b5761145b613817565b6020026020010151905060008760200151838151811061147d5761147d613817565b602002602001015190508160001480611494575080155b156114cb576040517fc32e014800000000000000000000000000000000000000000000000000000000815260040160405180910390fd5b600687815481106114de576114de613817565b6000918252602090912001546040516327c61f5160e01b81526001600160a01b03909116906327c61f5190611517908b90600401613a20565b602060405180830381865afa158015611534573d6000803e3d6000fd5b505050506040513d601f19601f820116820180604052508101906115589190613895565b50600c868154811061156c5761156c613817565b6000918252602090912001546040516316eae40960e01b81526001600160a01b03909116906316eae409906115a7908a908c90600401613982565b602060405180830381865afa1580156115c4573d6000803e3d6000fd5b505050506040513d601f19601f820116820180604052508101906115e89190613895565b611605576040516302c723f960e11b815260040160405180910390fd5b6000828152600e60205260409020600201548190036118d8576000828152600e60205260408120805460019091015460068054929391928490811061164c5761164c613817565b6000918252602090912001546040517f7d163749000000000000000000000000000000000000000000000000000000008152600481018790526001600160a01b0390911690637d163749906024016000604051808303816000875af11580156116b9573d6000803e3d6000fd5b505050506040513d6000823e601f3d908101601f191682016040526116e19190810190613b07565b9050600683815481106116f6576116f6613817565b6000918252602090912001546040517fb253740d0000000000000000000000000000000000000000000000000000000081526001600160a01b039091169063b253740d90611748908490600401613a20565b6020604051808303816000875af1158015611767573d6000803e3d6000fd5b505050506040513d601f19601f8201168201806040525081019061178b9190613895565b50600c828154811061179f5761179f613817565b600091825260209182902001546040805163544e172d60e11b815290516001600160a01b039092169263a89c2e5a926004808401938290030181865afa1580156117ed573d6000803e3d6000fd5b505050506040513d601f19601f820116820180604052508101906118119190613895565b611829576118238b828c868d87611bae565b506118d0565b600c898154811061183c5761183c613817565b600091825260209182902001546040805163544e172d60e11b815290516001600160a01b039092169263a89c2e5a926004808401938290030181865afa15801561188a573d6000803e3d6000fd5b505050506040513d601f19601f820116820180604052508101906118ae9190613895565b6118c057611823818c858d868e611bae565b6118ce818c858d868e610bbe565b505b5050506119a1565b6000818152600e6020526040902087815560018101879055600201829055600680548890811061190a5761190a613817565b6000918252602090912001546040517f7718e23a0000000000000000000000000000000000000000000000000000000081526001600160a01b0390911690637718e23a9061195c908b90600401613a20565b6020604051808303816000875af115801561197b573d6000803e3d6000fd5b505050506040513d601f19601f8201168201806040525081019061199f9190613895565b505b505050509392505050565b6000600d54831015806119c15750600d548210155b156119df57604051630eda946160e01b815260040160405180910390fd5b6000600c84815481106119f4576119f4613817565b600091825260209182902001546040805163544e172d60e11b815290516001600160a01b039092169350839263a89c2e5a926004808401938290030181865afa158015611a45573d6000803e3d6000fd5b505050506040513d601f19601f82011682018060405250810190611a699190613895565b611a8657604051635b1ed59f60e01b815260040160405180910390fd5b6000600c8481548110611a9b57611a9b613817565b600091825260209182902001546040805163544e172d60e11b815290516001600160a01b039092169350839263a89c2e5a926004808401938290030181865afa158015611aec573d6000803e3d6000fd5b505050506040513d601f19601f82011682018060405250810190611b109190613895565b15611b2e57604051635b1ed59f60e01b815260040160405180910390fd5b60408051602080820188905281830187905282518083038401815260609092018352815191810191909120600081815260099092529190205460ff1615611b8857604051631f7c56b760e21b815260040160405180910390fd5b6000818152600960205260409020805460ff191660011790556001935050505092915050565b60408051602080820185905281830184905282518083038401815260609092018352815191810191909120600090815260099091529081205460ff16610c30576040517f1165fddf00000000000000000000000000000000000000000000000000000000815260040160405180910390fd5b604051686f776e6572526f6c6560b81b602082015260009060290160405160208183030381529060405280519060200120611c5c816108883390565b600480546040517f12ad43aa0000000000000000000000000000000000000000000000000000000081526001600160a01b03909116916312ad43aa91611ca491879101613c0e565b6020604051808303816000875af1158015611cc3573d6000803e3d6000fd5b505050506040513d601f19601f82011682018060405250810190611ce79190613895565b50600191505b50919050565b6000600660018154811061083257610832613817565b604051686f776e6572526f6c6560b81b602082015260009060290160405160208183030381529060405280519060200120611d45816108883390565b600060075490508660068281548110611d6057611d60613817565b9060005260206000200160006101000a8154816001600160a01b0302191690836001600160a01b0316021790555060068181548110611da157611da1613817565b600091825260209091200154600254600480546005546040517f1708ed61000000000000000000000000000000000000000000000000000000008152928301869052602483018a90526001600160a01b038b81166044850152606484018a9052938416608484015290831660a4830152821660c4820152911690631708ed619060e4016020604051808303816000875af1158015611e43573d6000803e3d6000fd5b505050506040513d601f19601f82011682018060405250810190611e679190613895565b506007805490600061102e836139dd565b604051686f776e6572526f6c6560b81b602082015260009060290160405160208183030381529060405280519060200120611eb4816108883390565b6004805473ffffffffffffffffffffffffffffffffffffffff19166001600160a01b0385811691821783556003546040517f8c2a4d5300000000000000000000000000000000000000000000000000000000815291169281019290925290638c2a4d5390602401611ca4565b604051686f776e6572526f6c6560b81b602082015260009060290160405160208183030381529060405280519060200120611f5c816108883390565b6005805473ffffffffffffffffffffffffffffffffffffffff19166001600160a01b03858116918217909255600254600480546040517ffab687490000000000000000000000000000000000000000000000000000000081529285169183019190915290921660248301529063fab6874990604401611ca4565b600082815260208190526040902060010154611ff28133612296565b610a5b83836123b2565b600080826020015160008151811061201657612016613817565b602002602001015190506000836020015160018151811061203957612039613817565b602090810291909101810151600480548751938801516040516345c2f37f60e11b81529395506001600160a01b0390911693638b85e6fe9361207f93600c939101613cc3565b602060405180830381865afa15801561209c573d6000803e3d6000fd5b505050506040513d601f19601f820116820180604052508101906120c09190613895565b50604051819083907f78dd8c3ba670aacf126fdf991710d8ae9559838134b7e2f38d45911b7bd4237790600090a35060019392505050565b6000612103826129e1565b506000826020015160018151811061211d5761211d613817565b6020026020010151905060008360400151600361213a91906139f6565b612145906003613a0d565b905060008460200151828151811061215f5761215f613817565b60200260200101519050600f600082815260200190815260200160002060090154600003612259576000818152600f602090815260409091208651805180518355830151600183015591820151805188939183916002808401916121c591839190612ef2565b5060208201516121db9060028084019190612ef2565b50505060409190910151805160068301556020908101516007909201919091558281015180516122119260088501920190612f30565b506040828101516009830155606090920151600a9091015551819084907fc721fb519482fab66604e05e7929747c245d19169d1046e78a02f7cbf99cda0590600090a361228b565b6040517fe75467fd00000000000000000000000000000000000000000000000000000000815260040160405180910390fd5b506001949350505050565b6000828152602081815260408083206001600160a01b038516845290915290205460ff16610b1d576122d2816001600160a01b03166014612cc2565b6122dd836020612cc2565b6040516020016122ee929190613cf5565b60408051601f198184030181529082905262461bcd60e51b8252610b0a91600401613011565b6000828152602081815260408083206001600160a01b038516845290915290205460ff16610b1d576000828152602081815260408083206001600160a01b03851684529091529020805460ff1916600117905561236e3390565b6001600160a01b0316816001600160a01b0316837f2f8788117e7eff1d82e926ec794901d17c78024a50270940304540a733656f0d60405160405180910390a45050565b6000828152602081815260408083206001600160a01b038516845290915290205460ff1615610b1d576000828152602081815260408083206001600160a01b0385168085529252808320805460ff1916905551339285917ff6391f5c32d9c69d2a47ea670b442974b53935d1edc7fd64eb21e047a839171b9190a45050565b6000808760400151600261244591906139f6565b612450906001613a0d565b905060008860400151826124649190613a0d565b905060008860400151600361247991906139f6565b612484906001613a0d565b90508860200151818151811061249c5761249c613817565b60200260200101518a602001516000815181106124bb576124bb613817565b6020026020010151146124fa576040517f2d9a390100000000000000000000000000000000000000000000000000000000815260040160405180910390fd5b8960200151828151811061251057612510613817565b6020026020010151896020015160008151811061252f5761252f613817565b60200260200101511461256e576040517f01b6089600000000000000000000000000000000000000000000000000000000815260040160405180910390fd5b60006006898154811061258357612583613817565b6000918252602082200154600680546001600160a01b039092169350908a9081106125b0576125b0613817565b600091825260209091200154600c80546001600160a01b03909216925090899081106125de576125de613817565b9060005260206000200160009054906101000a90046001600160a01b03166001600160a01b03166316eae4098b8e6040518363ffffffff1660e01b8152600401612629929190613982565b602060405180830381865afa158015612646573d6000803e3d6000fd5b505050506040513d601f19601f8201168201806040525081019061266a9190613895565b612687576040516302c723f960e11b815260040160405180910390fd5b6040516327c61f5160e01b81526001600160a01b038316906327c61f51906126b3908f90600401613a20565b602060405180830381865afa1580156126d0573d6000803e3d6000fd5b505050506040513d601f19601f820116820180604052508101906126f49190613895565b50600c878154811061270857612708613817565b6000918252602090912001546040516316eae40960e01b81526001600160a01b03909116906316eae40990612743908c908f90600401613982565b602060405180830381865afa158015612760573d6000803e3d6000fd5b505050506040513d601f19601f820116820180604052508101906127849190613895565b6127a1576040516302c723f960e11b815260040160405180910390fd5b6040516327c61f5160e01b81526001600160a01b038216906327c61f51906127cd908e90600401613a20565b602060405180830381865afa1580156127ea573d6000803e3d6000fd5b505050506040513d601f19601f8201168201806040525081019061280e9190613895565b50604051630ba22c1360e41b81526001600160a01b0383169063ba22c1309061283b908f90600401613a20565b6020604051808303816000875af115801561285a573d6000803e3d6000fd5b505050506040513d601f19601f8201168201806040525081019061287e9190613895565b50604051630ba22c1360e41b81526001600160a01b0382169063ba22c130906128ab908e90600401613a20565b6020604051808303816000875af11580156128ca573d6000803e3d6000fd5b505050506040513d601f19601f820116820180604052508101906128ee9190613895565b506040516342eb971f60e11b81526001600160a01b038216906385d72e3e9061291b908e90600401613a20565b6020604051808303816000875af115801561293a573d6000803e3d6000fd5b505050506040513d601f19601f8201168201806040525081019061295e9190613895565b506040516342eb971f60e11b81526001600160a01b038316906385d72e3e9061298b908f90600401613a20565b6020604051808303816000875af11580156129aa573d6000803e3d6000fd5b505050506040513d601f19601f820116820180604052508101906129ce9190613895565b5060019c9b505050505050505050505050565b6000600282604001511015612a22576040517f647ce72c00000000000000000000000000000000000000000000000000000000815260040160405180910390fd5b606082015115612a5e576040517f090d645400000000000000000000000000000000000000000000000000000000815260040160405180910390fd5b60008260200151600181518110612a7757612a77613817565b6020026020010151905060008360200151600281518110612a9a57612a9a613817565b602002602001015190506000846040015190506000816002612abc91906139f6565b612ac7906003613a0d565b90506000612ad68360036139f6565b612ae1906003613a0d565b9050600c8481548110612af657612af6613817565b6000918252602090912001546040516316eae40960e01b81526001600160a01b03909116906316eae40990612b319088908b90600401613982565b602060405180830381865afa158015612b4e573d6000803e3d6000fd5b505050506040513d601f19601f82011682018060405250810190612b729190613895565b612b8f576040516302c723f960e11b815260040160405180910390fd5b60068581548110612ba257612ba2613817565b6000918252602090912001546040517f858414320000000000000000000000000000000000000000000000000000000081526001600160a01b0390911690638584143290612bf4908a90600401613a20565b6020604051808303816000875af1158015612c13573d6000803e3d6000fd5b505050506040513d601f19601f82011682018060405250810190612c379190613895565b5060048054885160208a01516040516345c2f37f60e11b81526001600160a01b0390931693638b85e6fe93612c7393600b939092909101613cc3565b602060405180830381865afa158015612c90573d6000803e3d6000fd5b505050506040513d601f19601f82011682018060405250810190612cb49190613895565b506001979650505050505050565b60606000612cd18360026139f6565b612cdc906002613a0d565b67ffffffffffffffff811115612cf457612cf4613024565b6040519080825280601f01601f191660200182016040528015612d1e576020820181803683370190505b5090507f300000000000000000000000000000000000000000000000000000000000000081600081518110612d5557612d55613817565b60200101907effffffffffffffffffffffffffffffffffffffffffffffffffffffffffffff1916908160001a9053507f780000000000000000000000000000000000000000000000000000000000000081600181518110612db857612db8613817565b60200101907effffffffffffffffffffffffffffffffffffffffffffffffffffffffffffff1916908160001a9053506000612df48460026139f6565b612dff906001613a0d565b90505b6001811115612e9c577f303132333435363738396162636465660000000000000000000000000000000085600f1660108110612e4057612e40613817565b1a60f81b828281518110612e5657612e56613817565b60200101907effffffffffffffffffffffffffffffffffffffffffffffffffffffffffffff1916908160001a90535060049490941c93612e9581613d76565b9050612e02565b508315612eeb5760405162461bcd60e51b815260206004820181905260248201527f537472696e67733a20686578206c656e67746820696e73756666696369656e746044820152606401610b0a565b9392505050565b8260028101928215612f20579160200282015b82811115612f20578251825591602001919060010190612f05565b50612f2c929150612f6a565b5090565b828054828255906000526020600020908101928215612f205791602002820182811115612f20578251825591602001919060010190612f05565b5b80821115612f2c5760008155600101612f6b565b600060208284031215612f9157600080fd5b81357fffffffff0000000000000000000000000000000000000000000000000000000081168114612eeb57600080fd5b60005b83811015612fdc578181015183820152602001612fc4565b50506000910152565b60008151808452612ffd816020860160208601612fc1565b601f01601f19169290920160200192915050565b602081526000612eeb6020830184612fe5565b634e487b7160e01b600052604160045260246000fd5b6040805190810167ffffffffffffffff8111828210171561305d5761305d613024565b60405290565b6040516080810167ffffffffffffffff8111828210171561305d5761305d613024565b6040516060810167ffffffffffffffff8111828210171561305d5761305d613024565b60405160a0810167ffffffffffffffff8111828210171561305d5761305d613024565b604051601f8201601f1916810167ffffffffffffffff811182821017156130f5576130f5613024565b604052919050565b600067ffffffffffffffff82111561311757613117613024565b5060051b60200190565b600082601f83011261313257600080fd5b81356020613147613142836130fd565b6130cc565b8083825260208201915060208460051b87010193508684111561316957600080fd5b602086015b84811015613185578035835291830191830161316e565b509695505050505050565b6000806000606084860312156131a557600080fd5b83359250602084013567ffffffffffffffff8111156131c357600080fd5b6131cf86828701613121565b925050604084013590509250925092565b6000604082840312156131f257600080fd5b6131fa61303a565b9050813581526020820135602082015292915050565b600082601f83011261322157600080fd5b61322961303a565b80604084018581111561323b57600080fd5b845b8181101561325557803584526020938401930161323d565b509095945050505050565b60006080828403121561327257600080fd5b61327a61303a565b90506132868383613210565b81526132958360408401613210565b602082015292915050565b60008183036101608112156132b457600080fd5b6132bc613063565b9150610100808212156132ce57600080fd5b6132d6613086565b91506132e285856131e0565b82526132f18560408601613260565b60208301526133038560c086016131e0565b604083015290825282013567ffffffffffffffff81111561332357600080fd5b61332f84828501613121565b6020830152506101208201356040820152610140820135606082015292915050565b6000806000806080858703121561336757600080fd5b843567ffffffffffffffff8082111561337f57600080fd5b61338b888389016132a0565b955060208701359150808211156133a157600080fd5b506133ae878288016132a0565b949794965050505060408301359260600135919050565b6000602082840312156133d757600080fd5b5035919050565b80356001600160a01b03811681146133f557600080fd5b919050565b6000806040838503121561340d57600080fd5b8235915061341d602084016133de565b90509250929050565b60008060008060008060c0878903121561343f57600080fd5b863567ffffffffffffffff8082111561345757600080fd5b6134638a838b016132a0565b9750602089013591508082111561347957600080fd5b5061348689828a016132a0565b96999698505050506040850135946060810135946080820135945060a09091013592509050565b600080604083850312156134c057600080fd5b50508035926020909101359150565b6000806000606084860312156134e457600080fd5b83359250602084013567ffffffffffffffff81111561350257600080fd5b6131cf868287016132a0565b801515811461351c57600080fd5b50565b80356133f58161350e565b6000806000806080858703121561354057600080fd5b613549856133de565b935060208086013567ffffffffffffffff8082111561356757600080fd5b818801915088601f83011261357b57600080fd5b81358181111561358d5761358d613024565b61359f601f8201601f191685016130cc565b915080825289848285010111156135b557600080fd5b80848401858401376000848284010152508095505050506135d86040860161351f565b9396929550929360600135925050565b6000806000606084860312156135fd57600080fd5b833567ffffffffffffffff81111561361457600080fd5b613620868287016132a0565b9660208601359650604090950135949350505050565b6000602080838503121561364957600080fd5b823567ffffffffffffffff8082111561366157600080fd5b908401906101e0828703121561367657600080fd5b61367e6130a9565b61368887846131e0565b815260406136998860408601613260565b858301526136aa8860c08601613260565b60408301526136bd886101408601613260565b60608301526101c0840135838111156136d557600080fd5b80850194505087601f8501126136ea57600080fd5b833592506136fa613142846130fd565b83815260069390931b8401850192858101908985111561371957600080fd5b948601945b8486101561373f576137308a876131e0565b8252948201949086019061371e565b60808401525090979650505050505050565b6000806000806080858703121561376757600080fd5b613770856133de565b935061377e602086016133de565b93969395505050506040820135916060013590565b6000602082840312156137a557600080fd5b612eeb826133de565b6000602082840312156137c057600080fd5b813567ffffffffffffffff8111156137d757600080fd5b610e51848285016132a0565b600181811c908216806137f757607f821691505b602082108103611ced57634e487b7160e01b600052602260045260246000fd5b634e487b7160e01b600052603260045260246000fd5b60008151808452602080850194506020840160005b8381101561385e57815187529582019590820190600101613842565b509495945050505050565b602081526000612eeb602083018461382d565b60006020828403121561388e57600080fd5b5051919050565b6000602082840312156138a757600080fd5b8151612eeb8161350e565b8060005b60028110156138d55781518452602093840193909101906001016138b6565b50505050565b6138e68282516138b2565b6020810151610a5b60408401826138b2565b61390d82825180518252602090810151910152565b602081015161391f60408401826138db565b5060400151805160c08301526020015160e090910152565b60006101606139478484516138f8565b60208301518161010086015261395f8286018261382d565b915050604083015161012085015260608301516101408501528091505092915050565b828152604060208201526000610e516040830184613937565b8481526080602082015260006139b46080830186612fe5565b9315156040830152506060015292915050565b634e487b7160e01b600052601160045260246000fd5b6000600182016139ef576139ef6139c7565b5060010190565b8082028115828204841417610784576107846139c7565b80820180821115610784576107846139c7565b602081526000612eeb6020830184613937565b600060408284031215613a4557600080fd5b613a4d61303a565b9050815181526020820151602082015292915050565b600082601f830112613a7457600080fd5b613a7c61303a565b806040840185811115613a8e57600080fd5b845b81811015613255578051845260209384019301613a90565b600082601f830112613ab957600080fd5b81516020613ac9613142836130fd565b8083825260208201915060208460051b870101935086841115613aeb57600080fd5b602086015b848110156131855780518352918301918301613af0565b600060208284031215613b1957600080fd5b815167ffffffffffffffff80821115613b3157600080fd5b90830190818503610160811215613b4757600080fd5b613b4f613063565b61010080831215613b5f57600080fd5b613b67613086565b613b718987613a33565b81526080603f1985011215613b8557600080fd5b613b8d61303a565b9350613b9c8960408801613a63565b8452613bab8960808801613a63565b6020850152836020820152613bc38960c08801613a33565b60408201528252840151915082821115613bdc57600080fd5b613be887838601613aa8565b602082015261012084015160408201526101409093015160608401525090949350505050565b60208082528251805183830152810151604083015260009061020083016020850151613c3d60608601826138db565b50604080860151613c5160e08701826138db565b506060860151613c656101608701826138db565b5060808601516101e086810152805192839052602001916000906102208701905b80831015613cb757613ca382865180518252602090810151910152565b938501936001929092019190830190613c86565b50979650505050505050565b6000610140858352613cd860208401866138f8565b80610120840152613ceb8184018561382d565b9695505050505050565b7f416363657373436f6e74726f6c3a206163636f756e7420000000000000000000815260008351613d2d816017850160208801612fc1565b7f206973206d697373696e6720726f6c65200000000000000000000000000000006017918401918201528351613d6a816028840160208801612fc1565b01602801949350505050565b600081613d8557613d856139c7565b50600019019056fea2646970667358221220d2487e619e310cbf5c0cd86661388dee5b4eb6f1eaad3f89b19e041a1cc5dc9164736f6c63430008180033",
  "linkReferences": {},
  "deployedLinkReferences": {}
}